{
  "_format": "hh-sol-artifact-1",
  "contractName": "Reconchain",
  "sourceName": "contracts/Reconchain.sol",
  "abi": [
    {
      "inputs": [
        {
          "internalType": "string",
          "name": "_reconchain",
          "type": "string"
        }
      ],
      "stateMutability": "nonpayable",
      "type": "constructor"
    },
    {
      "anonymous": false,
      "inputs": [
        {
          "indexed": false,
          "internalType": "address",
          "name": "candidateAddress",
          "type": "address"
        }
      ],
      "name": "CandidateProfileCreated",
      "type": "event"
    },
    {
      "anonymous": false,
      "inputs": [
        {
          "indexed": false,
          "internalType": "address",
          "name": "candidateAddress",
          "type": "address"
        }
      ],
      "name": "CandidateProfileDeleted",
      "type": "event"
    },
    {
      "anonymous": false,
      "inputs": [
        {
          "indexed": false,
          "internalType": "address",
          "name": "candidateAddress",
          "type": "address"
        }
      ],
      "name": "CandidateProfileUpdated",
      "type": "event"
    },
    {
      "anonymous": false,
      "inputs": [
        {
          "indexed": false,
          "internalType": "address",
          "name": "companyAddress",
          "type": "address"
        }
      ],
      "name": "CompanyProfileCreated",
      "type": "event"
    },
    {
      "anonymous": false,
      "inputs": [
        {
          "indexed": false,
          "internalType": "address",
          "name": "companyAddress",
          "type": "address"
        }
      ],
      "name": "CompanyProfileDeleted",
      "type": "event"
    },
    {
      "anonymous": false,
      "inputs": [
        {
          "indexed": false,
          "internalType": "address",
          "name": "companyAddress",
          "type": "address"
        }
      ],
      "name": "CompanyProfileUpdated",
      "type": "event"
    },
    {
      "anonymous": false,
      "inputs": [
        {
          "indexed": false,
          "internalType": "address",
          "name": "candidateAddress",
          "type": "address"
        },
        {
          "indexed": false,
          "internalType": "uint256",
          "name": "postIndex",
          "type": "uint256"
        },
        {
          "indexed": false,
          "internalType": "address",
          "name": "jobCompanyAddress",
          "type": "address"
        }
      ],
      "name": "JobApplicationCreated",
      "type": "event"
    },
    {
      "anonymous": false,
      "inputs": [
        {
          "indexed": false,
          "internalType": "address",
          "name": "companyAddress",
          "type": "address"
        },
        {
          "indexed": false,
          "internalType": "address",
          "name": "candidateAddress",
          "type": "address"
        },
        {
          "indexed": false,
          "internalType": "address",
          "name": "jobPostingAddress",
          "type": "address"
        }
      ],
      "name": "JobOfferAccepted",
      "type": "event"
    },
    {
      "anonymous": false,
      "inputs": [
        {
          "indexed": false,
          "internalType": "address",
          "name": "jobPostingCompanyAddress",
          "type": "address"
        },
        {
          "indexed": false,
          "internalType": "uint256",
          "name": "postIndex",
          "type": "uint256"
        }
      ],
      "name": "JobPostingCreated",
      "type": "event"
    },
    {
      "anonymous": false,
      "inputs": [
        {
          "indexed": false,
          "internalType": "address",
          "name": "jobPostingCompanyAddress",
          "type": "address"
        },
        {
          "indexed": false,
          "internalType": "uint256",
          "name": "postIndex",
          "type": "uint256"
        }
      ],
      "name": "JobPostingDeleted",
      "type": "event"
    },
    {
      "anonymous": false,
      "inputs": [
        {
          "indexed": false,
          "internalType": "address",
          "name": "jobPostingCompanyAddress",
          "type": "address"
        },
        {
          "indexed": false,
          "internalType": "uint256",
          "name": "postIndex",
          "type": "uint256"
        }
      ],
      "name": "JobPostingUpdated",
      "type": "event"
    },
    {
      "inputs": [
        {
          "internalType": "uint256",
          "name": "ind",
          "type": "uint256"
        },
        {
          "internalType": "address",
          "name": "candidateAddress",
          "type": "address"
        }
      ],
      "name": "acceptingJobOffer",
      "outputs": [],
      "stateMutability": "nonpayable",
      "type": "function"
    },
    {
      "inputs": [
        {
          "internalType": "uint256",
          "name": "ind",
          "type": "uint256"
        }
      ],
      "name": "candidateList",
      "outputs": [
        {
          "internalType": "address[]",
          "name": "",
          "type": "address[]"
        }
      ],
      "stateMutability": "view",
      "type": "function"
    },
    {
      "inputs": [
        {
          "internalType": "string",
          "name": "name",
          "type": "string"
        },
        {
          "internalType": "string",
          "name": "email",
          "type": "string"
        }
      ],
      "name": "createCandidateProfile",
      "outputs": [],
      "stateMutability": "nonpayable",
      "type": "function"
    },
    {
      "inputs": [
        {
          "internalType": "string",
          "name": "name",
          "type": "string"
        },
        {
          "internalType": "string",
          "name": "email",
          "type": "string"
        }
      ],
      "name": "createCompanyProfile",
      "outputs": [],
      "stateMutability": "nonpayable",
      "type": "function"
    },
    {
      "inputs": [
        {
          "internalType": "uint256",
          "name": "ind",
          "type": "uint256"
        },
        {
          "internalType": "address",
          "name": "companyAddress",
          "type": "address"
        }
      ],
      "name": "createJobApplication",
      "outputs": [],
      "stateMutability": "nonpayable",
      "type": "function"
    },
    {
      "inputs": [
        {
          "internalType": "string",
          "name": "title",
          "type": "string"
        },
        {
          "internalType": "string",
          "name": "description",
          "type": "string"
        }
      ],
      "name": "createJobPosting",
      "outputs": [],
      "stateMutability": "nonpayable",
      "type": "function"
    },
    {
      "inputs": [],
      "name": "deleteCandidateProfile",
      "outputs": [],
      "stateMutability": "nonpayable",
      "type": "function"
    },
    {
      "inputs": [],
      "name": "deleteCompanyProfile",
      "outputs": [],
      "stateMutability": "nonpayable",
      "type": "function"
    },
    {
      "inputs": [
        {
          "internalType": "uint256",
          "name": "ind",
          "type": "uint256"
        }
      ],
      "name": "deleteJobPosting",
      "outputs": [],
      "stateMutability": "nonpayable",
      "type": "function"
    },
    {
      "inputs": [
        {
          "internalType": "string",
          "name": "name",
          "type": "string"
        },
        {
          "internalType": "string",
          "name": "email",
          "type": "string"
        }
      ],
      "name": "updateCandidateProfile",
      "outputs": [],
      "stateMutability": "nonpayable",
      "type": "function"
    },
    {
      "inputs": [
        {
          "internalType": "string",
          "name": "name",
          "type": "string"
        },
        {
          "internalType": "string",
          "name": "email",
          "type": "string"
        }
      ],
      "name": "updateCompanyProfile",
      "outputs": [],
      "stateMutability": "nonpayable",
      "type": "function"
    },
    {
      "inputs": [
        {
          "internalType": "uint256",
          "name": "ind",
          "type": "uint256"
        },
        {
          "internalType": "string",
          "name": "title",
          "type": "string"
        },
        {
          "internalType": "string",
          "name": "description",
          "type": "string"
        }
      ],
      "name": "updateJobPosting",
      "outputs": [],
      "stateMutability": "nonpayable",
      "type": "function"
    }
  ],
  "bytecode": "0x60806040523480156200001157600080fd5b5060405162003c3738038062003c378339818101604052810190620000379190620002de565b6200006660405180606001604052806021815260200162003c16602191396200007f60201b620023021760201c565b80600090816200007791906200057a565b5050620006d7565b6200011f81604051602401620000969190620006b3565b6040516020818303038152906040527f41304fac000000000000000000000000000000000000000000000000000000007bffffffffffffffffffffffffffffffffffffffffffffffffffffffff19166020820180517bffffffffffffffffffffffffffffffffffffffffffffffffffffffff83818316178352505050506200012260201b60201c565b50565b60008151905060006a636f6e736f6c652e6c6f679050602083016000808483855afa5050505050565b6000604051905090565b600080fd5b600080fd5b600080fd5b600080fd5b6000601f19601f8301169050919050565b7f4e487b7100000000000000000000000000000000000000000000000000000000600052604160045260246000fd5b620001b48262000169565b810181811067ffffffffffffffff82111715620001d657620001d56200017a565b5b80604052505050565b6000620001eb6200014b565b9050620001f98282620001a9565b919050565b600067ffffffffffffffff8211156200021c576200021b6200017a565b5b620002278262000169565b9050602081019050919050565b60005b838110156200025457808201518184015260208101905062000237565b60008484015250505050565b6000620002776200027184620001fe565b620001df565b90508281526020810184848401111562000296576200029562000164565b5b620002a384828562000234565b509392505050565b600082601f830112620002c357620002c26200015f565b5b8151620002d584826020860162000260565b91505092915050565b600060208284031215620002f757620002f662000155565b5b600082015167ffffffffffffffff8111156200031857620003176200015a565b5b6200032684828501620002ab565b91505092915050565b600081519050919050565b7f4e487b7100000000000000000000000000000000000000000000000000000000600052602260045260246000fd5b600060028204905060018216806200038257607f821691505b6020821081036200039857620003976200033a565b5b50919050565b60008190508160005260206000209050919050565b60006020601f8301049050919050565b600082821b905092915050565b600060088302620004027fffffffffffffffffffffffffffffffffffffffffffffffffffffffffffffffff82620003c3565b6200040e8683620003c3565b95508019841693508086168417925050509392505050565b6000819050919050565b6000819050919050565b60006200045b620004556200044f8462000426565b62000430565b62000426565b9050919050565b6000819050919050565b62000477836200043a565b6200048f620004868262000462565b848454620003d0565b825550505050565b600090565b620004a662000497565b620004b38184846200046c565b505050565b5b81811015620004db57620004cf6000826200049c565b600181019050620004b9565b5050565b601f8211156200052a57620004f4816200039e565b620004ff84620003b3565b810160208510156200050f578190505b620005276200051e85620003b3565b830182620004b8565b50505b505050565b600082821c905092915050565b60006200054f600019846008026200052f565b1980831691505092915050565b60006200056a83836200053c565b9150826002028217905092915050565b62000585826200032f565b67ffffffffffffffff811115620005a157620005a06200017a565b5b620005ad825462000369565b620005ba828285620004df565b600060209050601f831160018114620005f25760008415620005dd578287015190505b620005e985826200055c565b86555062000659565b601f19841662000602866200039e565b60005b828110156200062c5784890151825560018201915060208501945060208101905062000605565b868310156200064c578489015162000648601f8916826200053c565b8355505b6001600288020188555050505b505050505050565b600082825260208201905092915050565b60006200067f826200032f565b6200068b818562000661565b93506200069d81856020860162000234565b620006a88162000169565b840191505092915050565b60006020820190508181036000830152620006cf818462000672565b905092915050565b61352f80620006e76000396000f3fe608060405234801561001057600080fd5b50600436106100b45760003560e01c8063a265869511610071578063a26586951461013d578063b13c744b14610159578063d33c1dbc14610189578063dcf39ef2146101a5578063e62e6cbd146101c1578063eafb5560146101dd576100b4565b806304fa5691146100b957806305621ecb146100d55780630fe7fbf0146100f15780632e8b6b7b146100fb578063315c9bd5146101175780636f2d0e2114610121575b600080fd5b6100d360048036038101906100ce9190612669565b6101f9565b005b6100ef60048036038101906100ea9190612775565b610435565b005b6100f9610a97565b005b61011560048036038101906101109190612775565b610cab565b005b61011f61110b565b005b61013b60048036038101906101369190612669565b611247565b005b610157600480360381019061015291906127b5565b61143b565b005b610173600480360381019061016e91906127b5565b611670565b60405161018091906128a0565b60405180910390f35b6101a3600480360381019061019e9190612669565b6117e2565b005b6101bf60048036038101906101ba91906128c2565b611bf8565b005b6101db60048036038101906101d69190612669565b611ed2565b005b6101f760048036038101906101f29190612669565b6120c6565b005b600082511161023d576040517f08c379a0000000000000000000000000000000000000000000000000000000008152600401610234906129aa565b60405180910390fd5b6000815111610281576040517f08c379a000000000000000000000000000000000000000000000000000000000815260040161027890612a16565b60405180910390fd5b6000600160003373ffffffffffffffffffffffffffffffffffffffff1673ffffffffffffffffffffffffffffffffffffffff16815260200190815260200160002060000180546102d090612a65565b905014610312576040517f08c379a000000000000000000000000000000000000000000000000000000000815260040161030990612ae2565b60405180910390fd5b81600160003373ffffffffffffffffffffffffffffffffffffffff1673ffffffffffffffffffffffffffffffffffffffff16815260200190815260200160002060000190816103619190612cb9565b5080600160003373ffffffffffffffffffffffffffffffffffffffff1673ffffffffffffffffffffffffffffffffffffffff16815260200190815260200160002060010190816103b19190612cb9565b506000600160003373ffffffffffffffffffffffffffffffffffffffff1673ffffffffffffffffffffffffffffffffffffffff168152602001908152602001600020600201819055507f4cbcda8c2442cb6984400113e8125ac18141cdf56bf20790e4a11381e3423380336040516104299190612d9a565b60405180910390a15050565b6000600260003373ffffffffffffffffffffffffffffffffffffffff1673ffffffffffffffffffffffffffffffffffffffff168152602001908152602001600020600001805461048490612a65565b9050036104c6576040517f08c379a00000000000000000000000000000000000000000000000000000000081526004016104bd90612e01565b60405180910390fd5b6000600160008373ffffffffffffffffffffffffffffffffffffffff1673ffffffffffffffffffffffffffffffffffffffff168152602001908152602001600020600001805461051590612a65565b905003610557576040517f08c379a000000000000000000000000000000000000000000000000000000000815260040161054e90612e93565b60405180910390fd5b60011515600360003373ffffffffffffffffffffffffffffffffffffffff1673ffffffffffffffffffffffffffffffffffffffff168152602001908152602001600020600084815260200190815260200160002060020160149054906101000a900460ff161515146105fe576040517f08c379a00000000000000000000000000000000000000000000000000000000081526004016105f590612eff565b60405180910390fd5b600073ffffffffffffffffffffffffffffffffffffffff16600360008373ffffffffffffffffffffffffffffffffffffffff1673ffffffffffffffffffffffffffffffffffffffff168152602001908152602001600020600084815260200190815260200160002060040160009054906101000a900473ffffffffffffffffffffffffffffffffffffffff1673ffffffffffffffffffffffffffffffffffffffff16146106e0576040517f08c379a00000000000000000000000000000000000000000000000000000000081526004016106d790612f91565b60405180910390fd5b6000600360003373ffffffffffffffffffffffffffffffffffffffff1673ffffffffffffffffffffffffffffffffffffffff16815260200190815260200160002060008481526020019081526020016000206003018054806020026020016040519081016040528092919081815260200182805480156107b557602002820191906000526020600020905b8160009054906101000a900473ffffffffffffffffffffffffffffffffffffffff1673ffffffffffffffffffffffffffffffffffffffff168152602001906001019080831161076b575b5050505050905060005b81518110156108fe5760018060008484815181106107e0576107df612fb1565b5b602002602001015173ffffffffffffffffffffffffffffffffffffffff1673ffffffffffffffffffffffffffffffffffffffff1681526020019081526020016000206003016000828254610834919061300f565b92505081905550600180600084848151811061085357610852612fb1565b5b602002602001015173ffffffffffffffffffffffffffffffffffffffff1673ffffffffffffffffffffffffffffffffffffffff16815260200190815260200160002060040160003373ffffffffffffffffffffffffffffffffffffffff1673ffffffffffffffffffffffffffffffffffffffff16815260200190815260200160002060008282546108e4919061300f565b9250508190555080806108f690613043565b9150506107bf565b506000600360003373ffffffffffffffffffffffffffffffffffffffff1673ffffffffffffffffffffffffffffffffffffffff168152602001908152602001600020600085815260200190815260200160002060020160146101000a81548160ff02191690831515021790555081600360003373ffffffffffffffffffffffffffffffffffffffff1673ffffffffffffffffffffffffffffffffffffffff168152602001908152602001600020600085815260200190815260200160002060040160006101000a81548173ffffffffffffffffffffffffffffffffffffffff021916908373ffffffffffffffffffffffffffffffffffffffff1602179055506001600260003373ffffffffffffffffffffffffffffffffffffffff1673ffffffffffffffffffffffffffffffffffffffff1681526020019081526020016000206003016000828254610a50919061300f565b925050819055507f893b4acc66b3bd4ea8d5cc9496acd3f0a46540ee3e1f360e9f09878054c01b64828433604051610a8a9392919061309a565b60405180910390a1505050565b6000600260003373ffffffffffffffffffffffffffffffffffffffff1673ffffffffffffffffffffffffffffffffffffffff1681526020019081526020016000206000018054610ae690612a65565b905003610b28576040517f08c379a0000000000000000000000000000000000000000000000000000000008152600401610b1f90612e01565b60405180910390fd5b6000600190505b600260003373ffffffffffffffffffffffffffffffffffffffff1673ffffffffffffffffffffffffffffffffffffffff168152602001908152602001600020600401548111610bf7576000600360003373ffffffffffffffffffffffffffffffffffffffff1673ffffffffffffffffffffffffffffffffffffffff168152602001908152602001600020600083815260200190815260200160002060020160146101000a81548160ff0219169083151502179055508080610bef90613043565b915050610b2f565b50600260003373ffffffffffffffffffffffffffffffffffffffff1673ffffffffffffffffffffffffffffffffffffffff16815260200190815260200160002060008082016000610c4891906123c4565b600182016000610c5891906123c4565b60028201600090556003820160009055600482016000905550507f5b3b6858d01a03e3a0896add42e1338f31118c99203310bb92e12a02864c694833604051610ca19190612d9a565b60405180910390a1565b6000600160003373ffffffffffffffffffffffffffffffffffffffff1673ffffffffffffffffffffffffffffffffffffffff1681526020019081526020016000206000018054610cfa90612a65565b905003610d3c576040517f08c379a0000000000000000000000000000000000000000000000000000000008152600401610d339061311d565b60405180910390fd5b600a600160003373ffffffffffffffffffffffffffffffffffffffff1673ffffffffffffffffffffffffffffffffffffffff1681526020019081526020016000206003015410610dc1576040517f08c379a0000000000000000000000000000000000000000000000000000000008152600401610db8906131af565b60405180910390fd5b60018060003373ffffffffffffffffffffffffffffffffffffffff1673ffffffffffffffffffffffffffffffffffffffff16815260200190815260200160002060040160008373ffffffffffffffffffffffffffffffffffffffff1673ffffffffffffffffffffffffffffffffffffffff1681526020019081526020016000205410610e82576040517f08c379a0000000000000000000000000000000000000000000000000000000008152600401610e7990613267565b60405180910390fd5b60011515600360008373ffffffffffffffffffffffffffffffffffffffff1673ffffffffffffffffffffffffffffffffffffffff168152602001908152602001600020600084815260200190815260200160002060020160149054906101000a900460ff16151514610f29576040517f08c379a0000000000000000000000000000000000000000000000000000000008152600401610f2090612eff565b60405180910390fd5b60018060003373ffffffffffffffffffffffffffffffffffffffff1673ffffffffffffffffffffffffffffffffffffffff1681526020019081526020016000206003016000828254610f7b9190613287565b9250508190555060018060003373ffffffffffffffffffffffffffffffffffffffff1673ffffffffffffffffffffffffffffffffffffffff16815260200190815260200160002060040160008373ffffffffffffffffffffffffffffffffffffffff1673ffffffffffffffffffffffffffffffffffffffff16815260200190815260200160002060008282546110119190613287565b92505081905550600360008273ffffffffffffffffffffffffffffffffffffffff1673ffffffffffffffffffffffffffffffffffffffff1681526020019081526020016000206000838152602001908152602001600020600301339080600181540180825580915050600190039060005260206000200160009091909190916101000a81548173ffffffffffffffffffffffffffffffffffffffff021916908373ffffffffffffffffffffffffffffffffffffffff1602179055507f893b4acc66b3bd4ea8d5cc9496acd3f0a46540ee3e1f360e9f09878054c01b643383836040516110ff9392919061309a565b60405180910390a15050565b6000600160003373ffffffffffffffffffffffffffffffffffffffff1673ffffffffffffffffffffffffffffffffffffffff168152602001908152602001600020600001805461115a90612a65565b90500361119c576040517f08c379a00000000000000000000000000000000000000000000000000000000081526004016111939061311d565b60405180910390fd5b600160003373ffffffffffffffffffffffffffffffffffffffff1673ffffffffffffffffffffffffffffffffffffffff168152602001908152602001600020600080820160006111ec91906123c4565b6001820160006111fc91906123c4565b6002820160009055600382016000905550507f3dce9dbc824f8a1efefec3aad252ad6aac510246ffbf5d834b126b52373384d73360405161123d9190612d9a565b60405180910390a1565b6000600260003373ffffffffffffffffffffffffffffffffffffffff1673ffffffffffffffffffffffffffffffffffffffff168152602001908152602001600020600001805461129690612a65565b9050036112d8576040517f08c379a00000000000000000000000000000000000000000000000000000000081526004016112cf90612e01565b60405180910390fd5b600082511161131c576040517f08c379a0000000000000000000000000000000000000000000000000000000008152600401611313906129aa565b60405180910390fd5b6000815111611360576040517f08c379a000000000000000000000000000000000000000000000000000000000815260040161135790612a16565b60405180910390fd5b81600260003373ffffffffffffffffffffffffffffffffffffffff1673ffffffffffffffffffffffffffffffffffffffff16815260200190815260200160002060000190816113af9190612cb9565b5080600260003373ffffffffffffffffffffffffffffffffffffffff1673ffffffffffffffffffffffffffffffffffffffff16815260200190815260200160002060010190816113ff9190612cb9565b507f6a630da1f84329b9f9089ae6de7058d077448b251c29bce678be98f09c0626843360405161142f9190612d9a565b60405180910390a15050565b6000600260003373ffffffffffffffffffffffffffffffffffffffff1673ffffffffffffffffffffffffffffffffffffffff168152602001908152602001600020600001805461148a90612a65565b9050036114cc576040517f08c379a00000000000000000000000000000000000000000000000000000000081526004016114c390612e01565b60405180910390fd5b6000600360003373ffffffffffffffffffffffffffffffffffffffff1673ffffffffffffffffffffffffffffffffffffffff1681526020019081526020016000206000838152602001908152602001600020600001805461152c90612a65565b90500361156e576040517f08c379a00000000000000000000000000000000000000000000000000000000081526004016115659061332d565b60405180910390fd5b6000600360003373ffffffffffffffffffffffffffffffffffffffff1673ffffffffffffffffffffffffffffffffffffffff168152602001908152602001600020600083815260200190815260200160002060020160146101000a81548160ff0219169083151502179055506001600260003373ffffffffffffffffffffffffffffffffffffffff1673ffffffffffffffffffffffffffffffffffffffff168152602001908152602001600020600301600082825461162d919061300f565b925050819055507f299d8d536912d6397346162d421c8b4b220bb7b1f4f88a69c1c5332534b4f715338260405161166592919061334d565b60405180910390a150565b60606000600260003373ffffffffffffffffffffffffffffffffffffffff1673ffffffffffffffffffffffffffffffffffffffff16815260200190815260200160002060000180546116c190612a65565b905003611703576040517f08c379a00000000000000000000000000000000000000000000000000000000081526004016116fa90612e01565b60405180910390fd5b600360003373ffffffffffffffffffffffffffffffffffffffff1673ffffffffffffffffffffffffffffffffffffffff16815260200190815260200160002060008381526020019081526020016000206003018054806020026020016040519081016040528092919081815260200182805480156117d657602002820191906000526020600020905b8160009054906101000a900473ffffffffffffffffffffffffffffffffffffffff1673ffffffffffffffffffffffffffffffffffffffff168152602001906001019080831161178c575b50505050509050919050565b6000600260003373ffffffffffffffffffffffffffffffffffffffff1673ffffffffffffffffffffffffffffffffffffffff168152602001908152602001600020600001805461183190612a65565b905003611873576040517f08c379a000000000000000000000000000000000000000000000000000000000815260040161186a90612e01565b60405180910390fd5b600a600260003373ffffffffffffffffffffffffffffffffffffffff1673ffffffffffffffffffffffffffffffffffffffff16815260200190815260200160002060030154106118f8576040517f08c379a00000000000000000000000000000000000000000000000000000000081526004016118ef906133e8565b60405180910390fd5b6000600260003373ffffffffffffffffffffffffffffffffffffffff1673ffffffffffffffffffffffffffffffffffffffff168152602001908152602001600020600401549050611947612404565b83816000018190525082816020018190525033816040019073ffffffffffffffffffffffffffffffffffffffff16908173ffffffffffffffffffffffffffffffffffffffff168152505060018160600190151590811515815250506001600260003373ffffffffffffffffffffffffffffffffffffffff1673ffffffffffffffffffffffffffffffffffffffff16815260200190815260200160002060040160008282546119f59190613287565b925050819055506001600260003373ffffffffffffffffffffffffffffffffffffffff1673ffffffffffffffffffffffffffffffffffffffff1681526020019081526020016000206003016000828254611a4f9190613287565b9250508190555080600360003373ffffffffffffffffffffffffffffffffffffffff1673ffffffffffffffffffffffffffffffffffffffff1681526020019081526020016000206000600185611aa59190613287565b81526020019081526020016000206000820151816000019081611ac89190612cb9565b506020820151816001019081611ade9190612cb9565b5060408201518160020160006101000a81548173ffffffffffffffffffffffffffffffffffffffff021916908373ffffffffffffffffffffffffffffffffffffffff16021790555060608201518160020160146101000a81548160ff0219169083151502179055506080820151816003019080519060200190611b62929190612468565b5060a08201518160040160006101000a81548173ffffffffffffffffffffffffffffffffffffffff021916908373ffffffffffffffffffffffffffffffffffffffff1602179055509050507fc81066c438d4d602f475bc9ca3a9d9a947cb43950255864c38fddd68641df98833600184611bdc9190613287565b604051611bea92919061334d565b60405180910390a150505050565b6000600260003373ffffffffffffffffffffffffffffffffffffffff1673ffffffffffffffffffffffffffffffffffffffff1681526020019081526020016000206000018054611c4790612a65565b905003611c89576040517f08c379a0000000000000000000000000000000000000000000000000000000008152600401611c8090612e01565b60405180910390fd5b6000600360003373ffffffffffffffffffffffffffffffffffffffff1673ffffffffffffffffffffffffffffffffffffffff16815260200190815260200160002060008581526020019081526020016000206000018054611ce990612a65565b905003611d2b576040517f08c379a0000000000000000000000000000000000000000000000000000000008152600401611d229061332d565b60405180910390fd5b60011515600360003373ffffffffffffffffffffffffffffffffffffffff1673ffffffffffffffffffffffffffffffffffffffff168152602001908152602001600020600085815260200190815260200160002060020160149054906101000a900460ff16151514611dd2576040517f08c379a0000000000000000000000000000000000000000000000000000000008152600401611dc990612eff565b60405180910390fd5b81600360003373ffffffffffffffffffffffffffffffffffffffff1673ffffffffffffffffffffffffffffffffffffffff16815260200190815260200160002060008581526020019081526020016000206000019081611e329190612cb9565b5080600360003373ffffffffffffffffffffffffffffffffffffffff1673ffffffffffffffffffffffffffffffffffffffff16815260200190815260200160002060008581526020019081526020016000206001019081611e939190612cb9565b507f6f02ecdf1e7cf535ef194e1bfd625990e08447189ae90e8f51464e98d0053a743384604051611ec592919061334d565b60405180910390a1505050565b6000600160003373ffffffffffffffffffffffffffffffffffffffff1673ffffffffffffffffffffffffffffffffffffffff1681526020019081526020016000206000018054611f2190612a65565b905003611f63576040517f08c379a0000000000000000000000000000000000000000000000000000000008152600401611f5a9061311d565b60405180910390fd5b6000825111611fa7576040517f08c379a0000000000000000000000000000000000000000000000000000000008152600401611f9e906129aa565b60405180910390fd5b6000815111611feb576040517f08c379a0000000000000000000000000000000000000000000000000000000008152600401611fe290612a16565b60405180910390fd5b81600160003373ffffffffffffffffffffffffffffffffffffffff1673ffffffffffffffffffffffffffffffffffffffff168152602001908152602001600020600001908161203a9190612cb9565b5080600160003373ffffffffffffffffffffffffffffffffffffffff1673ffffffffffffffffffffffffffffffffffffffff168152602001908152602001600020600101908161208a9190612cb9565b507fb37061d6e958318ebf38b6ae821eecce145957fa1141a30d84a05ef96aefc48c336040516120ba9190612d9a565b60405180910390a15050565b600082511161210a576040517f08c379a0000000000000000000000000000000000000000000000000000000008152600401612101906129aa565b60405180910390fd5b600081511161214e576040517f08c379a000000000000000000000000000000000000000000000000000000000815260040161214590612a16565b60405180910390fd5b6000600260003373ffffffffffffffffffffffffffffffffffffffff1673ffffffffffffffffffffffffffffffffffffffff168152602001908152602001600020600001805461219d90612a65565b9050146121df576040517f08c379a00000000000000000000000000000000000000000000000000000000081526004016121d690613454565b60405180910390fd5b81600260003373ffffffffffffffffffffffffffffffffffffffff1673ffffffffffffffffffffffffffffffffffffffff168152602001908152602001600020600001908161222e9190612cb9565b5080600260003373ffffffffffffffffffffffffffffffffffffffff1673ffffffffffffffffffffffffffffffffffffffff168152602001908152602001600020600101908161227e9190612cb9565b506000600260003373ffffffffffffffffffffffffffffffffffffffff1673ffffffffffffffffffffffffffffffffffffffff168152602001908152602001600020600201819055507fb6b43065bea035f6f1d383bc5683f76862b5ee81f1f88782589f6c895be22cdc336040516122f69190612d9a565b60405180910390a15050565b6123988160405160240161231691906134d7565b6040516020818303038152906040527f41304fac000000000000000000000000000000000000000000000000000000007bffffffffffffffffffffffffffffffffffffffffffffffffffffffff19166020820180517bffffffffffffffffffffffffffffffffffffffffffffffffffffffff838183161783525050505061239b565b50565b60008151905060006a636f6e736f6c652e6c6f679050602083016000808483855afa5050505050565b5080546123d090612a65565b6000825580601f106123e25750612401565b601f01602090049060005260206000209081019061240091906124f2565b5b50565b6040518060c001604052806060815260200160608152602001600073ffffffffffffffffffffffffffffffffffffffff16815260200160001515815260200160608152602001600073ffffffffffffffffffffffffffffffffffffffff1681525090565b8280548282559060005260206000209081019282156124e1579160200282015b828111156124e05782518260006101000a81548173ffffffffffffffffffffffffffffffffffffffff021916908373ffffffffffffffffffffffffffffffffffffffff16021790555091602001919060010190612488565b5b5090506124ee91906124f2565b5090565b5b8082111561250b5760008160009055506001016124f3565b5090565b6000604051905090565b600080fd5b600080fd5b600080fd5b600080fd5b6000601f19601f8301169050919050565b7f4e487b7100000000000000000000000000000000000000000000000000000000600052604160045260246000fd5b6125768261252d565b810181811067ffffffffffffffff821117156125955761259461253e565b5b80604052505050565b60006125a861250f565b90506125b4828261256d565b919050565b600067ffffffffffffffff8211156125d4576125d361253e565b5b6125dd8261252d565b9050602081019050919050565b82818337600083830152505050565b600061260c612607846125b9565b61259e565b90508281526020810184848401111561262857612627612528565b5b6126338482856125ea565b509392505050565b600082601f8301126126505761264f612523565b5b81356126608482602086016125f9565b91505092915050565b600080604083850312156126805761267f612519565b5b600083013567ffffffffffffffff81111561269e5761269d61251e565b5b6126aa8582860161263b565b925050602083013567ffffffffffffffff8111156126cb576126ca61251e565b5b6126d78582860161263b565b9150509250929050565b6000819050919050565b6126f4816126e1565b81146126ff57600080fd5b50565b600081359050612711816126eb565b92915050565b600073ffffffffffffffffffffffffffffffffffffffff82169050919050565b600061274282612717565b9050919050565b61275281612737565b811461275d57600080fd5b50565b60008135905061276f81612749565b92915050565b6000806040838503121561278c5761278b612519565b5b600061279a85828601612702565b92505060206127ab85828601612760565b9150509250929050565b6000602082840312156127cb576127ca612519565b5b60006127d984828501612702565b91505092915050565b600081519050919050565b600082825260208201905092915050565b6000819050602082019050919050565b61281781612737565b82525050565b6000612829838361280e565b60208301905092915050565b6000602082019050919050565b600061284d826127e2565b61285781856127ed565b9350612862836127fe565b8060005b8381101561289357815161287a888261281d565b975061288583612835565b925050600181019050612866565b5085935050505092915050565b600060208201905081810360008301526128ba8184612842565b905092915050565b6000806000606084860312156128db576128da612519565b5b60006128e986828701612702565b935050602084013567ffffffffffffffff81111561290a5761290961251e565b5b6129168682870161263b565b925050604084013567ffffffffffffffff8111156129375761293661251e565b5b6129438682870161263b565b9150509250925092565b600082825260208201905092915050565b7f4e616d652063616e6e6f7420626520656d707479000000000000000000000000600082015250565b600061299460148361294d565b915061299f8261295e565b602082019050919050565b600060208201905081810360008301526129c381612987565b9050919050565b7f456d61696c2063616e6e6f7420626520656d7074790000000000000000000000600082015250565b6000612a0060158361294d565b9150612a0b826129ca565b602082019050919050565b60006020820190508181036000830152612a2f816129f3565b9050919050565b7f4e487b7100000000000000000000000000000000000000000000000000000000600052602260045260246000fd5b60006002820490506001821680612a7d57607f821691505b602082108103612a9057612a8f612a36565b5b50919050565b7f43616e6469646174652070726f66696c6520616c726561647920657869737473600082015250565b6000612acc60208361294d565b9150612ad782612a96565b602082019050919050565b60006020820190508181036000830152612afb81612abf565b9050919050565b600081519050919050565b60008190508160005260206000209050919050565b60006020601f8301049050919050565b600082821b905092915050565b600060088302612b6f7fffffffffffffffffffffffffffffffffffffffffffffffffffffffffffffffff82612b32565b612b798683612b32565b95508019841693508086168417925050509392505050565b6000819050919050565b6000612bb6612bb1612bac846126e1565b612b91565b6126e1565b9050919050565b6000819050919050565b612bd083612b9b565b612be4612bdc82612bbd565b848454612b3f565b825550505050565b600090565b612bf9612bec565b612c04818484612bc7565b505050565b5b81811015612c2857612c1d600082612bf1565b600181019050612c0a565b5050565b601f821115612c6d57612c3e81612b0d565b612c4784612b22565b81016020851015612c56578190505b612c6a612c6285612b22565b830182612c09565b50505b505050565b600082821c905092915050565b6000612c9060001984600802612c72565b1980831691505092915050565b6000612ca98383612c7f565b9150826002028217905092915050565b612cc282612b02565b67ffffffffffffffff811115612cdb57612cda61253e565b5b612ce58254612a65565b612cf0828285612c2c565b600060209050601f831160018114612d235760008415612d11578287015190505b612d1b8582612c9d565b865550612d83565b601f198416612d3186612b0d565b60005b82811015612d5957848901518255600182019150602085019450602081019050612d34565b86831015612d765784890151612d72601f891682612c7f565b8355505b6001600288020188555050505b505050505050565b612d9481612737565b82525050565b6000602082019050612daf6000830184612d8b565b92915050565b7f4e6f74206120636f6d70616e7900000000000000000000000000000000000000600082015250565b6000612deb600d8361294d565b9150612df682612db5565b602082019050919050565b60006020820190508181036000830152612e1a81612dde565b9050919050565b7f43616e6469646174652070726f66696c6520646f6573206e6f7420657869737460008201527f7300000000000000000000000000000000000000000000000000000000000000602082015250565b6000612e7d60218361294d565b9150612e8882612e21565b604082019050919050565b60006020820190508181036000830152612eac81612e70565b9050919050565b7f74686520706f7374206973206e6f742061637469766520616e796d6f72650000600082015250565b6000612ee9601e8361294d565b9150612ef482612eb3565b602082019050919050565b60006020820190508181036000830152612f1881612edc565b9050919050565b7f43616e64696461746520616c72656164792073656c656374656420666f72207460008201527f68697320706f7374000000000000000000000000000000000000000000000000602082015250565b6000612f7b60288361294d565b9150612f8682612f1f565b604082019050919050565b60006020820190508181036000830152612faa81612f6e565b9050919050565b7f4e487b7100000000000000000000000000000000000000000000000000000000600052603260045260246000fd5b7f4e487b7100000000000000000000000000000000000000000000000000000000600052601160045260246000fd5b600061301a826126e1565b9150613025836126e1565b925082820390508181111561303d5761303c612fe0565b5b92915050565b600061304e826126e1565b91507fffffffffffffffffffffffffffffffffffffffffffffffffffffffffffffffff82036130805761307f612fe0565b5b600182019050919050565b613094816126e1565b82525050565b60006060820190506130af6000830186612d8b565b6130bc602083018561308b565b6130c96040830184612d8b565b949350505050565b7f4e6f7420612063616e6469646174650000000000000000000000000000000000600082015250565b6000613107600f8361294d565b9150613112826130d1565b602082019050919050565b60006020820190508181036000830152613136816130fa565b9050919050565b7f596f7520616c72656164792068617665206d6178696d756d206163746976652060008201527f6a6f62206170706c69636174696f6e7300000000000000000000000000000000602082015250565b600061319960308361294d565b91506131a48261313d565b604082019050919050565b600060208201905081810360008301526131c88161318c565b9050919050565b7f596f7520616c72656164792068617665206d6178696d756d206163746976652060008201527f6a6f62206170706c69636174696f6e7320666f72207468697320636f6d70616e60208201527f7900000000000000000000000000000000000000000000000000000000000000604082015250565b600061325160418361294d565b915061325c826131cf565b606082019050919050565b6000602082019050818103600083015261328081613244565b9050919050565b6000613292826126e1565b915061329d836126e1565b92508282019050808211156132b5576132b4612fe0565b5b92915050565b7f6a6f6220706f7374696e6720646f6573206e6f7420657869737420657869737460008201527f7300000000000000000000000000000000000000000000000000000000000000602082015250565b600061331760218361294d565b9150613322826132bb565b604082019050919050565b600060208201905081810360008301526133468161330a565b9050919050565b60006040820190506133626000830185612d8b565b61336f602083018461308b565b9392505050565b7f596f7520616c72656164792068617665206d6178696d756d206163746976652060008201527f6a6f6220706f7374696e67730000000000000000000000000000000000000000602082015250565b60006133d2602c8361294d565b91506133dd82613376565b604082019050919050565b60006020820190508181036000830152613401816133c5565b9050919050565b7f436f6d70616e792070726f66696c6520616c7265616479206578697374730000600082015250565b600061343e601e8361294d565b915061344982613408565b602082019050919050565b6000602082019050818103600083015261346d81613431565b9050919050565b60005b83811015613492578082015181840152602081019050613477565b60008484015250505050565b60006134a982612b02565b6134b3818561294d565b93506134c3818560208601613474565b6134cc8161252d565b840191505092915050565b600060208201905081810360008301526134f1818461349e565b90509291505056fea26469706673582212209d1e1994bdb3330cbf8a3cf0676b636552cf085a80521ca53fe5255375648ace64736f6c634300081200334465706c6f79696e67206120477265657465722077697468206772656574696e67",
  "linkReferences": {},
  "deployedLinkReferences": {}
}